:020000040000FA
:100000000C9463000C948B000C948B000C948B006C
:100010000C948B000C94170F0C948B000C945E0FB7
:100020000C948B000C948B000C948B000C948B0024
:100030000C948B000C948B000C948B000C948B0014
:100040000C94CD0E0C948B000C949B0E0C94750E9E
:100050000C948B000C948B000C948B000C948B00F4
:100060000C948B000C948B000000000024002700EF
:100070002A000000000023002600290000000008DC
:10008000000201000003040700000000000000005F
:10009000010204081020408001020408102001021F
:1000A0000408102000000000250028002B00040494
:1000B0000404040404040202020202020303030310
:1000C0000303D20FF91411241FBECFEFD8E0DEBF17
:1000D000CDBF12E0A0E0B1E0EEEEFEE202C005907E
:1000E0000D92A433B107D9F723E0A4E3B2E001C035
:1000F0001D92A538B207E1F710E0C2E6D0E004C0D7
:100100002197FE010E943816C136D107C9F70E9417
:10011000C9100C946A170C9400001F93CF93DF93BF
:1001200011E0180F2091F6021217A1F1C091F70209
:10013000D091F802215070E060E061F08F3FF1F45F
:1001400030E050E040E06FEF7FEF80E090E00E9411
:10015000AD15B901FE014091F2025091F302CF01B9
:100160008C1B9D0B8417950798F44081469FC00116
:10017000479F900D112490833196EDCF812F90E011
:10018000982F88270197622F70E00E941016E2CF07
:100190001093F602DF91CF911F9108958F929F9255
:1001A000AF92BF92CF92DF92EF92FF92CF934B012B
:1001B000AA24BB24C82DC52ED62EE72EFF24BC2D85
:1001C000A42F2091F602222361F0829E4001112487
:1001D000C92D2C9D60011124BD2D249FF0011124F7
:1001E000AF2FE091FC02E090F702F090F80230911E
:1001F000F902E31323C09C01220F331F820F931FC8
:100200008E0D9F1DE091F902E80FF92FF11DC083BB
:10021000E091FA02E80FF92FF11DB0832091FB0263
:10022000820F911DFC01A083CF91FF90EF90DF9092
:10023000CF90BF90AF909F908F900895880F991F97
:10024000880F991F8E0D9F1D472F552766277727EB
:10025000222349F030E0249F7001259FF00C349F49
:10026000F00C11244F2DE80FF92FF11D4083CACF58
:10027000AF92BF92CF92DF92EF92FF920F931F93B4
:10028000CF93DF93DC01282F2170E22E9C0136955D
:100290002795322F3170EC01D695C795D695C79525
:1002A000C1708C0173E0169507957A95E1F7202FC0
:1002B00021708C01E4E016950795EA95E1F7E02FAF
:1002C000E170DE2E8C01F5E016950795FA95E1F7C1
:1002D000E02FE170CE2E8C01D6E016950795DA95C9
:1002E000E1F7D02FD1708C01000F012F001F110BEF
:1002F0001195E02FE170BE2EE92FE170B1FB0027D0
:1003000000F9B2FB112710F9A32FA227AE25AC25C7
:10031000AD27AB25AE27AA24A394AA253C273D25CB
:100320003D273B253E2730273A25C227CC25CB2524
:10033000CE27C027C127C92EC2945FE0C5222D2534
:100340002E252D272E2720272127B3FBBB27B0F9E9
:100350002B27EC2DE170F0E09F702E171F0609F49B
:1003600041C06894C0F8C29440EFC4229C29292F50
:1003700022952F7021FB662760F970E09F70A61709
:100380001706A1F122602295207F922B292F22951A
:100390002F7022FB442740F950E09F703417150658
:1003A00039F124602295207F922B292F22952F70DE
:1003B000422F50E033E0559547953A95E1F79F700D
:1003C000C4171506B9F028602295207F922BDF9183
:1003D000CF911F910F91FF90EF90DF90CF90BF9042
:1003E000AF9008952C2D2E70C22EBDCF2D70CBCF87
:1003F0002B70D8CF2770E8CFAF92BF92CF92DF9209
:10040000EF92FF920F931F93CF93DF936C017B01C9
:100410008B01040F151FEB015E01AE18BF08C0175A
:10042000D10759F06991D601ED91FC910190F081CD
:10043000E02DC6010995892B79F7C501DF91CF9190
:100440001F910F91FF90EF90DF90CF90BF90AF90F2
:100450000895FC01538D448D252F30E0842F90E0CA
:10046000821B930B541710F0CF96089501970895AF
:10047000FC01918D828D981761F0A28DAE0FBF2F78
:10048000B11D5D968C91928D9F5F9F73928F90E0CE
:1004900008958FEF9FEF0895FC01918D828D98173D
:1004A00031F0828DE80FF11D858D90E008958FEF7A
:1004B0009FEF0895FC01918D228D892F90E0805C43
:1004C0009F4F821B91098F739927089583E492E0CF
:1004D0000E945A0221E0892B09F420E0822F08951E
:1004E00080E090E0892B29F00E94660281110C9433
:1004F00000000895FC01A48DA80FB92FB11DA35AC7
:10050000BF4F2C91848D90E001968F739927848F33
:10051000A689B7892C93A089B1898C918370806456
:100520008C93938D848D981306C00288F389E02DF7
:1005300080818F7D80830895EF92FF920F931F93A8
:10054000CF93DF93EC0181E0888F9B8D8C8D981386
:100550001AC0E889F989808185FF15C09FB7F89492
:10056000EE89FF896083E889F989808183708064DE
:1005700080839FBF81E090E0DF91CF911F910F9129
:10058000FF90EF900895F62E0B8D10E00F5F1F4F38
:100590000F731127E02E8C8D8E110CC00FB607FC47
:1005A000FACFE889F989808185FFF5CFCE010E94D5
:1005B0007A02F1CFEB8DEC0FFD2FF11DE35AFF4FC7
:1005C000F0829FB7F8940B8FEA89FB898081806263
:1005D000CFCFCF93DF93EC01888D8823B9F0AA8920
:1005E000BB89E889F9898C9185FD03C0808186FDEE
:1005F0000DC00FB607FCF7CF8C9185FFF2CF80813D
:1006000085FFEDCFCE010E947A02E9CFDF91CF9135
:100610000895833081F028F4813099F08230A9F078
:1006200008958730A9F08830C9F08430B1F4809102
:1006300080008F7D03C0809180008F778093800041
:10064000089584B58F7784BD089584B58F7DFBCFE1
:100650008091B0008F778093B00008958091B000B2
:100660008F7DF9CFCF93DF93282F30E0F901E45845
:10067000FF4F8491F901E057FF4FD491F901E25502
:10068000FF4FC491CC23A1F081110E940903EC2FEC
:10069000F0E0EE0FFF1FEE58FF4FA591B491EC91E3
:1006A000ED2381E090E009F480E0DF91CF9108959F
:1006B00080E090E0FACF1F93CF93DF93282F30E0B4
:1006C000F901E458FF4F8491F901E057FF4FD491AD
:1006D000F901E255FF4FC491CC23A9F0162F8111E7
:1006E0000E940903EC2FF0E0EE0FFF1FEC55FF4FC7
:1006F000A591B4918FB7F894EC91111108C0D095E1
:10070000DE23DC938FBFDF91CF911F910895DE2B05
:10071000F8CFCF93DF9390E0FC01E057FF4F249197
:1007200082559F4FFC0184918823C9F090E0880F87
:10073000991FFC01E859FF4FA591B491FC01EC55BC
:10074000FF4FC591D49161110DC09FB7F8948C9162
:10075000209582238C938881282328839FBFDF9153
:10076000CF910895623051F49FB7F8943C91822F55
:10077000809583238C93E8812E2BEFCF8FB7F8944D
:10078000EC912E2B2C938FBFEACF3FB7F89480913A
:10079000390290913A02A0913B02B0913C0226B5F9
:1007A000A89B05C02F3F19F00196A11DB11D3FBFA9
:1007B000BA2FA92F982F8827BC01CD01620F711D78
:1007C000811D911D42E0660F771F881F991F4A9572
:1007D000D1F70895CF92DF92EF92FF920F931F937C
:1007E000CF93DF93CDB7DEB729970FB6F894DEBF6E
:1007F0000FBECDBF8091F7029091F802892B09F4CA
:1008000080C0C090FD02D090FE02E090FF02F09008
:1008100000030E94C5036C157D058E059F0550F4ED
:100820000E94C5036093FD027093FE028093FF0255
:10083000909300030E94C5030091FD021091FE02F7
:100840002091FF0230910003601B710B820B930B10
:100850006C32714081059105A0F2F8948091F2020A
:100860009091F3029A838983E091F702F091F80264
:10087000DF011196808189879091EE02E09101035A
:10088000F091020380910303992309F449C09081F8
:10089000982B98879081809589238F838F818C8373
:1008A00088E08B8358856F8149853B812C818981C4
:1008B0009A81508347FD252F3A952083262F39F0C2
:1008C000441F00C000006083000000C0F2CF38E089
:1008D0004D9160830000019761F7F0930203E0936C
:1008E000010349873B832C839A83898378940E94F0
:1008F000C5036093FD027093FE028093FF02909304
:10090000000329960FB6F894DEBF0FBECDBFDF916E
:10091000CF911F910F91FF90EF90DF90CF900895AE
:100920009081982B98879081809589238F838F81E0
:100930008E8388E08D8358856F8149853D812E8126
:1009400089819A81508347FD252F00C000C02083F4
:1009500000C000C000C000C000C060830000262F9F
:100960003A9541F0441F000000C000C000C000C024
:1009700000C0E8CF38E04D9100C0608300C001970F
:1009800009F7F0930203E093010349873D832E8327
:10099000ABCFCF92DF92EF92FF920F931F93811113
:1009A00017C00027142F252F362F00271127332794
:1009B000C52ED62EE72EFF24CC24EE24FF240C29AE
:1009C0001D292E293F2968017901C42AB701A601F2
:1009D00090E02091F0023091F1028217930710F419
:1009E0000E94CE001F910F91FF90EF90DF90CF906B
:1009F0000C94EA03CF93DF93D0E0C0E08091F00243
:100A00009091F102C817D90730F440E050E0BA01E4
:100A1000CE010E94CE002196C930D10579F7DF9131
:100A2000CF910C94EA038F929F92AF92BF92CF9294
:100A3000DF92EF92FF926B017C010E94C5034B0194
:100A40005C01C114D104E104F104B9F00E94C503B2
:100A5000681979098A099B09683E734081059105E7
:100A600080F321E0C21AD108E108F10888EE880E6F
:100A700083E0981EA11CB11CE4CFFF90EF90DF90A3
:100A8000CF90BF90AF909F908F900895CF92DF92BC
:100A9000EF92FF92CF9369017A01613081F4C1E056
:100AA000B701A6018C2F0E94C904CF5FC530C1F7E2
:100AB000CF91FF90EF90DF90CF900C94EA036230DB
:100AC00059F4BA01A90185E00E94C904B701A60141
:100AD00086E00E94C904ECCFBA01A90187E00E9418
:100AE000C904B701A60188E0F4CFFC01228D2223BE
:100AF00059F08789908D108E178A118E128E0E9460
:100B00003801292F207F11F080E090E00895CF93E5
:100B1000DF93EC018885882391F08D819E811E8270
:100B20001D821F8218860E943801292F207F39F4E8
:100B30001F861E86188A198ADF91CF9108958989A8
:100B4000882381F08E859F851F861E86188A198AC4
:100B50000E943801292F207F29F41E821D821F82C6
:100B60001886EACF80E090E0E7CF1F93CF93DF9322
:100B7000EC01162F8091680084608093680060FF0C
:100B80000DC060E085E00E94890360E086E00E947D
:100B9000890380916D00806680936D0011FF0DC008
:100BA00062E087E00E94890380916D0080688093F5
:100BB0006D00188E1F8A198E1A8EDF91CF911F91AA
:100BC00008958F929F92BF92CF92DF92EF92FF9201
:100BD0000F931F93CF93DF93EC017B01142F042F0E
:100BE000027041FF06C068E070E080E090E00E9483
:100BF0001305812F8170B82E10FF0DC080916D00FC
:100C00008F7980936D001E821D821F8218861F8639
:100C10001E86188A198A002349F080916D008F770B
:100C200080936D00188E1F8A198E1A8EC7019F70CF
:100C30000E9438014C0180E190E09F8F8E8F88E008
:100C400090E099A388A362E070E050E040E0A1E06A
:100C5000B0E083E0C82ED12C9B01215F3F4FCB0138
:100C600040967401042E02C0F694E7940A94E2F7C9
:100C7000220F331F2C0F3D1FF901B183A083880F72
:100C8000991F8C0F9D1FFC01E0FE54C0D182C082D1
:100C90004F5F5F4F6E5F7F4F40315105E9F681E056
:100CA00090E0FE01EE59FF4F91838083329691834D
:100CB00080833296108201118C8FBB20F9F081E085
:100CC0008D8FF89410928100109280001092850010
:100CD0001092840081ED90E09093890080938800C9
:100CE00084E48093800080918100886080938100FB
:100CF00080918100816080938100789461E087E039
:100D00000E94890381E08B8F8B8D8111FDCF62E082
:100D100087E00E948903612FCE01DF91CF911F915F
:100D20000F91FF90EF90DF90CF90BF909F908F90AA
:100D30000C94B505B183A083ABCF0F931F93CF93D2
:100D4000DF93EC018885811129C08C81861731F1F0
:100D50006C83611123C00E94C503AB01BC01888173
:100D60009981AA81BB818A019B01081B190B2A0B5F
:100D70003B0BD901C801488359836A837B83A8014F
:100D8000B901415657426109710945325641610521
:100D9000710548F481E08F831E821D82DF91CF911F
:100DA0001F910F9108952F812223C1F3AC01BD0142
:100DB0004159564061097109403B53406105710535
:100DC00098F48D819E81969587959E838D838D81E4
:100DD0009E8190689E838D838F818F5F8F83813109
:100DE000E9F681E08887DACF89549340A109B109F7
:100DF000873D9140A105B10588F68D819E8196952C
:100E00008795E8CFFC018081882371F08091840070
:100E100090918500892BD1F7F894909180009F7E66
:100E200090938000789410820895FC012181211113
:100E30000C94020764317105DCF32081211126C076
:100E4000F894109280001092810010928500109208
:100E500084002FE133E030938900209388002091B3
:100E600081002860209381002091810022602093DE
:100E700081002091800020612093800020918000DB
:100E80002F7B20938000789421E020839B01072E04
:100E9000000C440B550B613A7F4014F560E472E49A
:100EA0008FE090E00E94AD152150310980918400BF
:100EB000909185008217930720F010928500109280
:100EC00084003093890020938800809181008260A3
:100ED00080938100809181008E7F809381000895AE
:100EE00060E072E18AE790E00E94AD15215031097F
:100EF00080918400909185008217930720F01092D2
:100F0000850010928400309389002093880080919E
:100F10008100816080938100809181008D7FDDCF91
:100F20000F931F93CF93DF938C01EA010E94150763
:100F3000BE01DD0F880B990B0E941305C801DF91DC
:100F4000CF911F910F910C9402070F931F93CF9392
:100F500083E10E943203C82F84E00E9432038C0197
:100F600088E00E94320341E050E09A01201B310BDF
:100F7000220F2C1B2F5F481B590B440F440F822F4D
:100F8000840FCF911F910F910895982F80913E0269
:100F9000882311F0992359F080913F02811107C0F5
:100FA0000E94A507811103C0809100010895089552
:100FB00080E00C94C507882329F081E00E948D0011
:100FC0000C94EA038FEFFACF0F931F93CF93DF9325
:100FD000CAE7D0E000917F0310918003BE01C801F1
:100FE0000E941507699661E070E080E090E00E9441
:100FF0001305C63B8FE0D80769F770E060E0C801D1
:101000000E94150764E670E080E090E00E941305FE
:10101000CAE7D0E0BE01C8010E941507699662E0E8
:1010200070E080E090E00E941305CE3C8BE0D80792
:1010300089F7BE01C8010E941507699762E070E058
:1010400080E090E00E941305CA37D10591F770E067
:1010500060E0C801DF91CF911F910F910C941507AB
:101060000F931F93CF93DF930AE010E0C0917F03AB
:10107000D091800368EC70E0CE010E94150769E111
:1010800070E080E090E00E94130570E060E0CE0127
:101090000E94150769E170E080E090E00E9413056E
:1010A0000150110919F770E060E0CE01DF91CF9196
:1010B0001F910F910C941507DF92EF92FF920F93FF
:1010C0001F93CF93DF9300E010E0C02FC195D02F86
:1010D000F12CE12CD12ED0948D2D8F0D853508F07B
:1010E00042C042E04C0F50E070E060E0BA0155278A
:1010F00044278DEF8D0F482B8E2D0E94C904E39459
:10110000DE51C25E86EFF80E86EAF812E5CF0E9445
:10111000EA0364E670E080E090E00E941305165F49
:101120000E51183C91F6C0917F03D091800346E4A4
:1011300050E061E074E0CE010E94900744EF51E07E
:101140006AE278E0CE010E94900770E060E0CE0194
:101150000E941507DF91CF911F910F91FF90EF90A3
:10116000DF900C94FA048A3A60F44EEF4D0F50E091
:1011700070E060E0762F652F542F442781E08C0FBC
:10118000BACF4C2F50E070E060E0762F652F542FDF
:1011900044278FEF8D0F682BAFCF4FEF5FEF6FEFCF
:1011A00070E080E00E94C9040E94EA0368EC70E0ED
:1011B00080E090E00E94130540E050E0BA0180E03A
:1011C0000E94C9040E94EA0368EC70E080E090E0AD
:1011D0000C941305CF92DF92EF92FF920F931F931F
:1011E000482F062F10E030E020E060E070E0CB01F7
:1011F00040FF03C0C8017727662741FF0EC0680182
:101200007901F694E794D794C794FE2CED2CDC2C4E
:10121000CC246C297D298E299F2942FF04C0602B94
:10122000712B822B932B1F910F91FF90EF90DF90EA
:10123000CF9008950F931F93CF93DF93182F062F0E
:10124000C091EC02D091ED026FEF0E94EA08AB0171
:10125000BC0180E00E94C90420E030E0A901002325
:1012600031F069E1812F0E94EA089B01AC0161E045
:10127000CE010E944605DF91CF911F910F910C94F2
:10128000EA032F923F925F926F927F928F929F928A
:10129000AF92BF92CF92DF92EF92FF920F931F9384
:1012A000CF93DF93582E082F10E0000F111F6FEF20
:1012B0000E94EA084B015C011801220C331CF12C3E
:1012C000E12C53E0652E712C68ECC62ED12CC09118
:1012D000EC02D091ED022E143F0409F448C0C7017E
:1012E000B3010E942416A5019401009761F561E005
:1012F000CE010E94460520E030E0A90163E0CE0166
:101300000E944605C8E8D3E1BE0180917F03909119
:1013100080030E941507C601B8010E94241662309E
:10132000710544F0CB01880F991F880F991F05970D
:101330000197F1F72A97C83E83E0D80729F78FEF86
:10134000E81AF80AC4CF019749F462E0CE010E947E
:10135000460520E030E0A90161E0D1CF63E0CE0195
:101360000E94460520E030E0A90162E0C8CF80E499
:101370009FE1B8010E9424167B0184E6809F500102
:10138000819FB00C112484EF91E0089F6001099FB8
:10139000D00C189FD00C11248601000F111F000FD4
:1013A000111F0550110980917F0390918003AE14A5
:1013B000BF0474F4B7010E94150782E0C816D10477
:1013C0001CF0C8010197F1F78AE0E81AF108EBCFA9
:1013D00070E060E00E94150720E030E0A90161E0C4
:1013E000CE010E94460520E030E0A90162E0CE0176
:1013F0000E94460520E030E0A90163E0CE010E9492
:10140000460561E0852DDF91CF911F910F91FF90EF
:10141000EF90DF90CF90BF90AF909F908F907F9094
:101420006F905F903F902F900C941A09CF93DF93A9
:101430000E941A09C0917F03D091800343E250E0DB
:1014400060E173E0CE010E94900743E250E060E269
:1014500076E0CE010E94900743E250E060E47CE039
:10146000CE010E94900770E060E0CE010E94150757
:1014700064E670E080E090E0DF91CF910C9413057A
:10148000FC0101900020E9F73197AF01481B590B8F
:10149000BC0183E492E00C94FC018F929F92AF9286
:1014A000BF920F931F93CF93DF93CDB7DEB7A19772
:1014B0000FB6F894DEBF0FBECDBF19A2423008F4BC
:1014C0004AE08E010F5D1F4F842E912CB12CA12C70
:1014D000A50194010E94DF15E62FB901CA01EA3087
:1014E000F4F4E05DD801EE938D01232B242B252B02
:1014F00079F790E080E0109719F0CD010E94400A42
:10150000A1960FB6F894DEBF0FBECDBFDF91CF918D
:101510001F910F91BF90AF909F908F900895E95CBD
:10152000E1CFCF93DF930E94400AEC018EE291E07D
:101530000E94400A8C0F9D1FDF91CF910895CF9399
:101540000E94A5078770C82FC06F81E391E00E94B9
:10155000910A42E06C2F70E08091730390917403C4
:10156000CF910C94E105CF92DF92EF92FF926B0145
:101570007C01C114D104E104F10441F00E9455152D
:10158000A70196010E94AD156B017C01C701B60150
:10159000FF90EF90DF90CF9008954F925F926F92FF
:1015A0007F928F929F92AF92BF92CF92DF92EF92F3
:1015B000FF920F931F93CF93DF93C091EC02D091D2
:1015C000ED0220E03FEF40E050E061E0CE010E94FC
:1015D000460568EE73E080E090E00E94B30A2B01BC
:1015E0003C0128EE420E23E0521E611C711CC12CEE
:1015F000D12C760110E000E0460157016CE677E05F
:1016000080E090E00E94B30A2FEFC21AD20AE20AE9
:10161000F20A6C597F4F8F4F9F4F681579058A05E5
:101620009B05B4F0B801660F771F640D751D80919E
:101630007F03909180030E94150762E070E080E0D4
:1016400090E00E94B30A0E9413050F5F1F4FD4CF92
:1016500020E030E0A90161E0CE010E94460520E0D3
:101660003FEF40E050E061E0CE010E944605C12C12
:10167000D12C76014601570164E873E080E090E0E8
:101680000E94B30A2FEFC21AD20AE20AF20A6C5978
:101690007F4F8F4F9F4F681579058A059B059CF0FA
:1016A000B20180917F03909180030E94150762E050
:1016B00070E080E090E00E94B30A0E9413058AE087
:1016C000481A5108D7CF20E030E0A90162E0CE01EE
:1016D000DF91CF911F910F91FF90EF90DF90CF900E
:1016E000BF90AF909F908F907F906F905F904F9042
:1016F0000C9446054F925F926F927F928F929F92C9
:10170000AF92BF92CF92DF92EF92FF920F931F930F
:10171000CF93DF93C091EC02D091ED0220E030E056
:101720004FEF50E061E0CE010E94460568EE73E0A5
:1017300080E090E00E94B30A2B013C0128EE420EAB
:1017400023E0521E611C711CC12CD12C760110E0CB
:1017500000E0460157016CE677E080E090E00E94EF
:10176000B30A2FEFC21AD20AE20AF20A6C597F4F6B
:101770008F4F9F4F681579058A059B05BCF0C801FE
:10178000880F991FB201681B790B80917F0390919C
:1017900080030E94150762E070E080E090E00E9404
:1017A000B30A0E9413050F5F1F4FD3CF20E030E034
:1017B000A90162E0CE010E94460520E030E04FEF33
:1017C00050E061E0CE010E944605C12CD12C76018B
:1017D0004601570164E873E080E090E00E94B30A9C
:1017E0002FEFC21AD20AE20AF20A6C597F4F8F4FCA
:1017F0009F4F681579058A059B059CF0B201809181
:101800007F03909180030E94150762E070E080E002
:1018100090E00E94B30A0E9413058AE0480E511C12
:10182000D7CF20E030E0A90162E0CE01DF91CF9177
:101830001F910F91FF90EF90DF90CF90BF90AF90EE
:101840009F908F907F906F905F904F900C94460583
:101850008F929F92AF92BF92CF92DF92EF92FF92C0
:101860000F931F93CF93DF9366E070E080E090E0EA
:101870000E94B30ADC01CB010196A11DB11D83308A
:101880009105A105B10509F46DC00CF05EC0813071
:101890009105A105B10509F472C00297A105B10532
:1018A00009F462C0C091EC02D091ED022FEF30E05C
:1018B00040E050E062E0CE010E944605C12CD12CF0
:1018C00076014601570166E070E080E090E00E94FA
:1018D000B30A2FEFC21AD20AE20AF20A6D5F7F4FF3
:1018E0008F4F9F4F681579058A059B050CF44AC0F8
:1018F00000917F031091800364E77EE080E090E038
:101900000E94B30A645A7640810991096053784F66
:10191000C8010E94150764E670E080E090E00E9434
:10192000B30A6A5B7F4F8F4F9F4F0E94130570E091
:1019300060E0C8010E9415076EE170E080E090E071
:101940000E94B30A0E941305BCCF85309105A10502
:10195000B10569F084F00697A105B10509F0A2CFA1
:101960000E94CD0A0E947A0B0E94CD0A9BCF0E9452
:101970007A0B0E94CD0A0E947A0B0E94CD0A0E9427
:101980007A0B90CF20E030E0A90162E0CE010E9406
:10199000460570E060E080917F0390918003DF91C5
:1019A000CF911F910F91FF90EF90DF90CF90BF905C
:1019B000AF909F908F900C9415074F925F926F920B
:1019C0007F928F929F92AF92BF92CF92DF92EF92CF
:1019D000FF920F931F93CF93DF93182FC091EC02C8
:1019E000D091ED020E94FA046FEF812F0E94EA0865
:1019F0009B01AC0161E0CE010E94460538E1432E17
:101A00003CEF532E66246A94762CC8EED3E04DEF5B
:101A1000A42EBB24BA945BE7852E5EE3952E00913D
:101A20007F0310918003CE01B5010E9424166B0143
:101A30008CE0C81A8EEFD80A0D2C000CEE08FF08B7
:101A4000C414D504E604F70464F4C301B2016C19AC
:101A50007D098E099F090E94B30AC60ED71EE81E93
:101A6000F91EB601C8010E941507C4010197F1F7DC
:101A7000649784EB480E511C611C711C209779F609
:101A800080E4482E8FE1582E612C712C9DEFA92EF9
:101A9000BB24BA942BE3822E26E0922E00917F0382
:101AA00010918003CE01B5010E9424166B018CE0D9
:101AB000C81A8EEFD80A0D2C000CEE08FF08C414CB
:101AC000D504E604F70464F4C301B2016C197D097E
:101AD0008E099F090E94B30AC60ED71EE81EF91E82
:101AE000B601C8010E941507C4010197F1F72196BC
:101AF00089E0481A510861087108C83E83E0D80798
:101B000069F670E060E080917F03909180030E940D
:101B10001507C1E068EE73E080E090E00E941305D5
:101B200040E050E0BA018C2F0E94C9040E94EA03F1
:101B3000CF5FC53079F768EE73E080E090E0DF9129
:101B4000CF911F910F91FF90EF90DF90CF90BF90BA
:101B5000AF909F908F907F906F905F904F900C947C
:101B60001305DF92EF92FF920F931F93CF93DF93B2
:101B7000EC012D2F2F7080913D0290E0281719065F
:101B800049F58C2FC3FF26C08770D82EE82EF12C84
:101B90000E94D8078E151F04E9F080E00E94DB0741
:101BA000C77F009173031091740342E0BE01C80126
:101BB0000E94E105BE0190E080E04AE00E944D0AEB
:101BC0008EE291E00E94400A80914002882351F009
:101BD000813009F1DF91CF911F910F91FF90EF902C
:101BE000DF9008958D2D0E94DD0CC8010E948705AD
:101BF000C8010E9475050E94FA04C09101010E946B
:101C0000D8076C2FDF91CF911F910F91FF90EF902C
:101C1000DF900C94160A8D2D0E94DD0CC8010E94E5
:101C20008705C8010E9475050E94FA04D0923E0201
:101C30001092420281E00E94C5078E151F04E9F64A
:101C400010923E02DACF1F93CF93DF93182FD92F34
:101C5000C92FCF7009F445C0CA3008F042C064EF04
:101C600071E080E090E00E94B30A6C507E4F8F4F8D
:101C70009F4F0E9413050E9455152EE130E040E071
:101C800050E00E94AD15672B682B692B39F50E9437
:101C9000E407C15FCF70D07FDC2BCC23A9F06AEFC3
:101CA00070E080E090E00E94B30A66507F4F8F4F53
:101CB0009F4F0E94130541E0612F7D2F8091730398
:101CC000909174030E94E105C09101010E94D80720
:101CD0006C2FDF91CF911F910C941A090E94280C50
:101CE000D8CFDF91CF911F9108951F920F920FB619
:101CF0000F9211242F933F934F935F936F937F9392
:101D00008F939F93AF93BF93EF93FF9383E492E0FE
:101D10000E947A02FF91EF91BF91AF919F918F91B5
:101D20007F916F915F914F913F912F910F900FBED7
:101D30000F901F9018951F920F920FB60F921124BB
:101D40002F938F939F93EF93FF93E0915302F09122
:101D500054028081E0915902F0915A0282FD1BC029
:101D6000908180915C028F5F8F7320915D0282175A
:101D700041F0E0915C02F0E0ED5BFD4F958F8093C8
:101D80005C02FF91EF919F918F912F910F900FBE69
:101D90000F901F9018958081F4CF1F920F920FB66D
:101DA0000F9211242F933F938F939F93AF93BF93E1
:101DB0008091350290913602A0913702B09138029D
:101DC0003091340223E0230F2D3758F50196A11DE1
:101DD000B11D209334028093350290933602A09374
:101DE0003702B09338028091390290913A02A09163
:101DF0003B02B0913C020196A11DB11D80933902B6
:101E000090933A02A0933B02B0933C02BF91AF91F2
:101E10009F918F913F912F910F900FBE0F901F9028
:101E2000189526E8230F0296A11DB11DD2CF1F924F
:101E30000F920FB60F9211240F931F932F933F937E
:101E40004F935F936F937F938F939F93AF93BF93C2
:101E5000CF93DF93EF93FF9369B1D9B1C9B10091EB
:101E600073031091740366FB662760F9C8010E9432
:101E70009D06D5FB662760F9C80109960E949D065C
:101E80006C2F6095661F6627661FC80142960E94E8
:101E90009D06FF91EF91DF91CF91BF91AF919F91FF
:101EA0008F917F916F915F914F913F912F911F91F2
:101EB0000F910F900FBE0F901F9018951F920F92C9
:101EC0000FB60F9211240F931F932F933F934F93AD
:101ED0005F936F937F938F939F93AF93BF93CF93B2
:101EE000DF93EF93FF93C0917303D09174038B8DB5
:101EF0008823C1F18E010A591F4FD8018C91817836
:101F000087FF03C081508E6F8F5F813009F03FC023
:101F10008D8D811121988C8D60E081113FC0D80199
:101F2000EC91EE0FFF0BEC0FFD1F868D978D019747
:101F3000978F868FEC910E2E000CFF0B3F96EE0FC5
:101F4000FF1FEC0FFD1F80819181181619061CF0F0
:101F50008C918F5F8C93F801808184321CF01B8EF2
:101F60001C8E1D8EFF91EF91DF91CF91BF91AF91AC
:101F70009F918F917F916F915F914F913F912F91A1
:101F80001F910F910F900FBE0F901F9018958D8D80
:101F90008111219A8C8D882311F261E087E00E94E3
:101FA0005B03BDCFCF93109246021092450288EE9C
:101FB00093E0A0E0B0E08093470290934802A093A2
:101FC0004902B0934A0280E291E0909344028093E8
:101FD000430285EC90E09093500280934F0284EC92
:101FE00090E0909352028093510280EC90E09093A5
:101FF00054028093530281EC90E0909356028093B8
:10200000550282EC90E0909358028093570286EC40
:1020100090E090935A028093590210925C021092C1
:102020005D0210925E0210925F021092EF02109217
:10203000F6021092FD021092FE021092FF02109220
:10204000000381E08093FC028093F9021092FA026F
:1020500092E09093FB028093EE028BE190E09093EC
:10206000F3028093F2020E943E169093F80280934E
:10207000F702009709F484C02BE1FC0111922A9524
:10208000E9F789E090E09093F1028093F00282E01A
:1020900090E09093F5028093F4028091EF02882300
:1020A00041F061E082E00E94890360E082E00E94EA
:1020B0005B03E0EBF0E0E491F0E0EE0FFF1FEC5586
:1020C000FF4F859194919093020380930103E2E97D
:1020D000F0E0E491E09303038091E402811103C0F6
:1020E00081E08093E40280EE92E09093ED02809391
:1020F000EC0280916B03811126C0C1E0C0930803FC
:10210000C0931103C0931A0310920A03109209039B
:1021100010920B0310920C031092130310921203EF
:10212000109214031092150310921C0310921B03BB
:1021300010921D0310921E0363E084E093E00E945E
:10214000B505C0936B0384E093E090937403809390
:1021500073038091770381110BC010927503109265
:10216000760361E08AE00E94890381E0809377032F
:1021700085E793E09093800380937F03CF91089548
:102180001092F3021092F2021092F1021092F002F9
:102190007ECFCF93DF93CDB7DEB762970FB6F894BB
:1021A000DEBF0FBECDBF789484B5826084BD84B598
:1021B000816084BD85B5826085BD85B5816085BD42
:1021C00080916E00816080936E00109281008091FA
:1021D0008100826080938100809181008160809382
:1021E0008100809180008160809380008091B100A7
:1021F00084608093B1008091B00081608093B000D2
:1022000080917A00846080937A0080917A00826065
:1022100080937A0080917A00816080937A00809127
:102220007A00806880937A001092C10062E083E0B7
:102230000E94890362E083E10E94890362E084E0F6
:102240000E94890362E088E00E948903E0915302C2
:10225000F091540282E08083E0914F02F0915002AD
:102260001082E0915102F091520280E1808310923D
:102270005B02E0915702F091580286E08083E09182
:102280005502F0915602808180618083E091550271
:10229000F0915602808188608083E0915502F09130
:1022A0005602808180688083E0915502F091560249
:1022B00080818F7D8083009173031091740362E0AD
:1022C00087E00E948903F801138E148E158EEA5957
:1022D000FF4F1082F8941092B0001092B10010924B
:1022E000B20082E88093B3008091B0008260809356
:1022F000B0008091B10084608093B1008091700043
:10230000826080937000789484E480937C00809154
:102310007A00806480937A0080917A0086FDFCCFF9
:102320006091780070917900072E000C880B990B52
:10233000611571058105910511F00E94A41562E0F7
:1023400083E10E94890362E084E00E94890362E0E5
:1023500088E00E94890361E08EE00E94890383E1A6
:102360000E943203892BB9F084E00E943203892B4A
:1023700091F088E00E943203892B69F087E491E0B4
:102380000E94910A83E10E943203892BE1F58DE5D9
:1023900091E00E94910A60E08EE00E9489038091A2
:1023A000F4029091F50297FD08C061E00E94890354
:1023B00060E08091F4020E945B0311E01093EF0251
:1023C0008FEF0E948D004091F2025091F30270E075
:1023D00060E08091F7029091F8020E9463170E94DA
:1023E000EA0383E00E943203892B29F4E0917F0302
:1023F000F0918003118383E00E943203892B21F541
:102400000E94CD08F8CF84E00E943203892B09F4A2
:10241000BECF88E00E943203892B09F4B8CF61E077
:102420008EE00E945B0364E670E080E090E00E9432
:10243000130560E08EE00E945B0364EF71E080E0D2
:1024400090E00E9413059ECF0E945C0864EF71E04B
:1024500080E090E00E9413050E949F0A82E791E0CD
:102460000E94910A7BEF472E73E1572EEBEF2E2E41
:10247000E7E23E2ECE0141969A8B898B0E94D807C7
:1024800090910001891759F00E94D80780930001AC
:10249000109101010E94D807612F0E94160A83E063
:1024A0000E943203892BA1F580910101882309F450
:1024B0005DC080913D028F70D82E00917303109102
:1024C000740380914202882309F444C00E94D80713
:1024D0008770682F68629E2D907FE92EED2843E07B
:1024E0007E2DC8010E94E1050E94D8070E94410983
:1024F00080914102882349F010924102109201011B
:102500000E94D80760E00E941A0980E00E94DB0761
:10251000A0907303B0907403C5010E9475058C01EF
:10252000807F81F180E891E00E94910AE02FE2959E
:10253000EF70E150E93030F5F0E0EF55FD4E0C94CE
:1025400038166B137413B91203132513C2127613C2
:102550006313B9140E94D8078770682F6861EF2D44
:10256000E07FFE2EFD2843E07F2DBBCF0E94300888
:10257000BFCF0E949F0A1F708CE991E00E94910AD0
:1025800010933D02C5010E948705182F092F807FF7
:1025900081F0D12ED2948FE0D8228AE192E00E947D
:1025A000910A81E0D81609F4EDC199E0D91609F431
:1025B000F0C180914002813009F00BC20E94C50732
:1025C000182F80E00E94C507181709F402C281E0A5
:1025D0000E94C507082F0E94D807182F0E94551582
:1025E0002AE030E040E050E00E94AD156115710531
:1025F0008105910509F0D6C16FEF802F0E94EA088E
:10260000AB01BC01D7C10E949F0A1F7088EB91E00B
:102610000E94910A12FB882780F98093410211FBE6
:10262000882780F9809342020FE001270170009310
:102630000101812F8695869586950E94DB070E9471
:10264000D807602F0E941A099DCF0E949F0A077029
:102650001F708AED91E00E94400A612F70E090E0C7
:1026600080E04AE00E944D0A8AEF91E00E94400A11
:10267000602F70E090E080E04AE00E944D0A8EE218
:1026800091E00E94400A11110EC010924002F1E048
:10269000F0930101109242021092410210923E0208
:1026A00000933F026FCF113029F410934002109332
:1026B0000101F0CF123009F065CF1093400281E0A4
:1026C00080930101E7CF0E949F0A07708EEF91E08F
:1026D0000E94910AE5CF0E949F0A802F8F7080612F
:1026E000912F0E94B10D4ECF0E949F0A0E949F0A17
:1026F000E12FEF70E150EF30B0F4F0E0EE57FC4E18
:102700000C943816911399139C13A013BF13E9135B
:10271000F913B014B31493139313931393139313E4
:10272000B6140E945C08109101010E94D807612F25
:1027300089CF0E943008F7CF87E00E94DD0CF3CFED
:1027400000917F031091800343E250E064EC70E05D
:10275000C8010E94900743E250E068E871E0C801B8
:102760000E94900743E250E060E173E0C8010E94DC
:10277000900770E060E0C8010E941507D4CF009177
:102780007F031091800342E850E069E471E0C801E2
:102790000E94900742E850E068E871E0C8010E949A
:1027A000900742E850E063E972E0C8010E94900798
:1027B00042E850E06BE072E0C8010E94900742E8F6
:1027C00050E06BE472E0C8010E9490074DE750E0D2
:1027D000CBCF00917F031091800344E650E06DEE73
:1027E00071E0C8010E94900748E552E063E972E099
:1027F000BDCF80E1ECE0F1E0DE01119601900D9299
:102800008A95E1F76AE0C62ED12C00917F031091E2
:1028100080036AE174E0C8010E941507C2010197B4
:10282000F1F76AE174E0C8010E941507C101019740
:10283000F1F791E0C91AD10841F763E270E080E056
:1028400090E00E941305FE0131966F0159E1652E5B
:10285000712CF60180809180B401C8010E94150797
:102860008BEF91E00197F1F7F1E06F1A710889F7AA
:1028700064E170E080E090E00E94130549E1642E7D
:10288000712CB401C8010E9415078BEF94E00197E9
:10289000F1F781E0681A7108A1F770E060E0C80103
:1028A0000E94150769E170E080E090E00E94130546
:1028B00092E0C90ED11CE989FA89CE16DF0609F02B
:1028C000C5CF32EAC32E39E0D32EB601C8010E942B
:1028D0001507F3E0CF0ED11C61E070E080E090E0DE
:1028E0000E9413058AE0C8168BE0D80671F729E02C
:1028F000C22E2BE0D22EB601C8010E94150796E029
:10290000C91AD10861E070E080E090E00E941305F0
:10291000EDECCE16E7E0DE0671F770E060E0C8018E
:102920000E94150763E270E080E090E00E941305CA
:102930009AE0C92ED12C6AE174E0C8010E94150703
:10294000C2010197F1F76AE174E0C8010E9415071E
:10295000C1010197F1F7F1E0CF1AD10861F709CF72
:102960000E94E407E0CE0E94280CDDCE0E94CD0834
:10297000DACE0E949F0A802F8F708069912F0E946B
:10298000230E00CE812F8F708061902F0E94B10D99
:1029900010CE0E949F0A812F8F708069902F0E9415
:1029A000230E07CE6430710581059105FCF440E0EB
:1029B00050E0BA0180E00E94C9040E94EA030E942C
:1029C000551522E330E040E050E00E94AD150E9432
:1029D0001305E0E0F0E0EF2B09F450CD0E94660211
:1029E000882309F44BCD0E94000048CD6FEF812F62
:1029F00005CE8091F7029091F8020E94DA1680913C
:102A0000F4029091F50297FD03C060E00C948903F5
:102A100008958F929F92AF92BF92CF92DF92EF92E2
:102A2000FF92CF93DF93EC01688179818A819B814A
:102A3000611571058105910521F464E279ED8BE55D
:102A400097E02DE133EF41E050E00E94AD154901E0
:102A50005A019B01AC01A7EAB1E40E94CC156B01BD
:102A60007C01ACEEB4EFA50194010E94DA15C60E0C
:102A7000D71EE81EF91EF7FE06C081E0C81AD1086D
:102A8000E10880E8F80AC882D982EA82FB82C7019D
:102A9000B6019F77DF91CF91FF90EF90DF90CF90BD
:102AA000BF90AF909F908F9008958F929F92AF921A
:102AB000BF92CF92DF92EF92FF92609102017091EC
:102AC0000301809104019091050161157105810553
:102AD000910521F464E279ED8BE597E02DE133EF88
:102AE00041E050E00E94AD1549015A019B01AC0143
:102AF000A7EAB1E40E94CC156B017C01ACEEB4EF07
:102B0000A50194010E94DA15C60ED71EE81EF91E13
:102B1000F7FE06C081E0C81AD108E10880E8F80A8B
:102B2000C0920201D0920301E0920401F0920501EB
:102B3000C701B6019F77FF90EF90DF90CF90BF90D5
:102B4000AF909F908F90089560930201709303015E
:102B500080930401909305010895052E97FB1EF4C0
:102B600000940E94C41557FD07D00E94DF1507FC92
:102B700003D04EF40C94C415509540953095219592
:102B80003F4F4F4F5F4F0895909580957095619599
:102B90007F4F8F4F9F4F08950E940116A59F900D64
:102BA000B49F900DA49F800D911D11240895B7FF2F
:102BB0000C94CC150E94CC15821B930B0895A1E2B6
:102BC0001A2EAA1BBB1BFD010DC0AA1FBB1FEE1FA7
:102BD000FF1FA217B307E407F50720F0A21BB30BF2
:102BE000E40BF50B661F771F881F991F1A9469F76E
:102BF00060957095809590959B01AC01BD01CF01CA
:102C00000895A29FB001B39FC001A39F700D811DC5
:102C10001124911DB29F700D811D1124911D0895E5
:102C2000AA1BBB1B51E107C0AA1FBB1FA617B707F2
:102C300010F0A61BB70B881F991F5A95A9F780950E
:102C40009095BC01CD01089597FB072E16F40094D2
:102C500007D077FD09D00E94101607FC05D03EF47E
:102C6000909581959F4F0895709561957F4F089538
:102C7000EE0FFF1F0590F491E02D09940F931F9321
:102C8000CF93DF938230910510F482E090E0E091E1
:102C90008303F091840330E020E0B0E0A0E03097BF
:102CA00099F42115310509F44AC0281B390B243049
:102CB0003105D8F58A819B816115710589F1FB0188
:102CC00093838283FE0111C040815181028113816F
:102CD00048175907E0F04817590799F4109761F021
:102CE00012960C93129713961C933296CF01DF9194
:102CF000CF911F910F910895009383031093840344
:102D0000F4CF2115310551F04217530738F0A901CE
:102D1000DB019A01BD01DF01F801C1CFEF01F9CF5D
:102D20009093840380938303CDCFFE01E20FF31FC2
:102D3000819391932250310939832883D7CF2091F1
:102D4000810330918203232B41F4209108013091BB
:102D50000901309382032093810320910601309171
:102D600007012115310541F42DB73EB740910A0105
:102D700050910B01241B350BE0918103F0918203EC
:102D8000E217F307A0F42E1B3F0B2817390778F042
:102D9000AC014E5F5F4F2417350748F04E0F5F1FA1
:102DA0005093820340938103819391939FCFF0E0EE
:102DB000E0E09CCFCF93DF930097E9F0FC013297DE
:102DC00013821282A0918303B0918403ED0130E05D
:102DD00020E01097A1F420813181820F931F209170
:102DE0008103309182032817390709F061C0F093FD
:102DF0008203E0938103DF91CF910895EA01CE171A
:102E0000DF07E8F54A815B819E0141155105B1F765
:102E1000E901FB83EA8349915991C40FD51FEC174F
:102E2000FD0761F4808191810296840F951FE9016D
:102E300099838883828193819B838A83F0E0E0E099
:102E400012968D919C9113970097B9F52D913C9115
:102E50001197CD010296820F931F2091810330912B
:102E600082032817390739F6309751F510928403F9
:102E700010928303B0938203A0938103BCCFD383CA
:102E8000C28340815181840F951FC817D90761F40F
:102E90004E5F5F4F88819981480F591F518340834E
:102EA0008A819B81938382832115310509F0B0CFFC
:102EB000F0938403E09383039ECFFD01DC01C0CF38
:102EC00013821282D7CFDC0101C06D934150504074
:102ED000E0F7089510E0C2E6D0E004C0FE010E94D1
:102EE00038162196C336D107C9F7F894FFCFFF01F2
:102EF000010000000000850380008D076C08470773
:102F0000E10518078D07C106F308000000009C02C8
:102F1000FC012902E9025A0238024C020D0A005350
:102F2000656E64696E672041434B20746F20626157
:102F30006467652E00456E74657220466C61736827
:102F40002054657374204D6F646500457869742062
:102F5000466C6173682054657374204D6F6465001E
:102F6000426C6173746572205265616479005265C8
:102F7000636569766564206D657373616765206656
:102F8000726F6D2062616467650052656365697682
:102F900065642065436F6D6D616E6453657443684D
:102FA000616E6E656C005265636569766564206567
:102FB000436F6D6D616E64536574547269676765C4
:102FC00072416374696F6E0052656365697665640A
:102FD0002065436F6D6D616E6453657447616D6507
:102FE0004D6F6465204D3A0020543A005265636588
:102FF000697665642065436F6D6D616E64546561CB
:103000006D4368616E6765005265636569766564E6
:10301000206D6573736167652066726F6D2049521C
:023020000000AE
:107E0000112484B714BE81FFF0D085E080938100F7
:107E100082E08093C00088E18093C10086E0809377
:107E2000C20080E18093C4008EE0C9D0259A86E02C
:107E300020E33CEF91E0309385002093840096BBD3
:107E4000B09BFECF1D9AA8958150A9F7CC24DD24C4
:107E500088248394B5E0AB2EA1E19A2EF3E0BF2EE7
:107E6000A2D0813461F49FD0082FAFD0023811F036
:107E7000013811F484E001C083E08DD089C08234E0
:107E800011F484E103C0853419F485E0A6D080C0E4
:107E9000853579F488D0E82EFF2485D0082F10E0AE
:107EA000102F00270E291F29000F111F8ED06801E7
:107EB0006FC0863521F484E090D080E0DECF843638
:107EC00009F040C070D06FD0082F6DD080E0C81688
:107ED00080E7D80618F4F601B7BEE895C0E0D1E017
:107EE00062D089930C17E1F7F0E0CF16F0E7DF06D8
:107EF00018F0F601B7BEE89568D007B600FCFDCFD4
:107F0000A601A0E0B1E02C9130E011968C91119780
:107F100090E0982F8827822B932B1296FA010C0160
:107F200087BEE89511244E5F5F4FF1E0A038BF0790
:107F300051F7F601A7BEE89507B600FCFDCF97BE46
:107F4000E89526C08437B1F42ED02DD0F82E2BD052
:107F50003CD0F601EF2C8F010F5F1F4F84911BD097
:107F6000EA94F801C1F70894C11CD11CFA94CF0C13
:107F7000D11C0EC0853739F428D08EE10CD085E9AC
:107F80000AD08FE07ACF813511F488E018D01DD067
:107F900080E101D065CF982F8091C00085FFFCCF94
:107FA0009093C60008958091C00087FFFCCF809118
:107FB000C00084FD01C0A8958091C6000895E0E648
:107FC000F0E098E1908380830895EDDF803219F02E
:107FD00088E0F5DFFFCF84E1DECF1F93182FE3DFCA
:107FE0001150E9F7F2DF1F91089580E0E8DFEE27F6
:047FF000FF270994CA
:027FFE00040479
:00000001FF
